{
  "src/Token.sol": {
    "Token": {
      "abi": [
        {
          "inputs": [],
          "name": "total",
          "outputs": [
            {
              "internalType": "uint256",
              "name": "",
              "type": "uint256"
            }
          ],
          "stateMutability": "view",
          "type": "function"
        },
        {
          "inputs": [],
          "name": "totalSupply",
          "outputs": [
            {
              "internalType": "uint256",
              "name": "",
              "type": "uint256"
            }
          ],
          "stateMutability": "view",
          "type": "function"
        }
      ],
      "evm": {
        "bytecode": {
          "linkReferences": {},
          "object": "608060405260018055348015601357600080fd5b50608f806100226000396000f3fe6080604052348015600f57600080fd5b506004361060325760003560e01c806318160ddd1460375780632ddbd13a146051575b600080fd5b603f60005481565b60405190815260200160405180910390f35b603f6001548156fea26469706673582212206097e9cbe82d07f2a4682ac1fb2def2ceaef2757636a3b9e3dd8467d1cbdcef464736f6c63430008050033",
          "opcodes": "PUSH1 0x80 PUSH1 0x40 MSTORE PUSH1 0x1 DUP1 SSTORE CALLVALUE DUP1 ISZERO PUSH1 0x13 JUMPI PUSH1 0x0 DUP1 REVERT JUMPDEST POP PUSH1 0x8F DUP1 PUSH2 0x22 PUSH1 0x0 CODECOPY PUSH1 0x0 RETURN INVALID PUSH1 0x80 PUSH1 0x40 MSTORE CALLVALUE DUP1 ISZERO PUSH1 0xF JUMPI PUSH1 0x0 DUP1 REVERT JUMPDEST POP PUSH1 0x4 CALLDATASIZE LT PUSH1 0x32 JUMPI PUSH1 0x0 CALLDATALOAD PUSH1 0xE0 SHR DUP1 PUSH4 0x18160DDD EQ PUSH1 0x37 JUMPI DUP1 PUSH4 0x2DDBD13A EQ PUSH1 0x51 JUMPI JUMPDEST PUSH1 0x0 DUP1 REVERT JUMPDEST PUSH1 0x3F PUSH1 0x0 SLOAD DUP2 JUMP JUMPDEST PUSH1 0x40 MLOAD SWAP1 DUP2 MSTORE PUSH1 0x20 ADD PUSH1 0x40 MLOAD DUP1 SWAP2 SUB SWAP1 RETURN JUMPDEST PUSH1 0x3F PUSH1 0x1 SLOAD DUP2 JUMP INVALID LOG2 PUSH5 0x6970667358 0x22 SLT KECCAK256 PUSH1 0x97 0xE9 0xCB 0xE8 0x2D SMOD CALLCODE LOG4 PUSH9 0x2AC1FB2DEF2CEAEF27 JUMPI PUSH4 0x6A3B9E3D 0xD8 CHAINID PUSH30 0x1CBDCEF464736F6C63430008050033000000000000000000000000000000 "
        },
        "methodIdentifiers": {
          "total()": "2ddbd13a",
          "totalSupply()": "18160ddd"
        }
      }
    }
  }
}