{
  "_format": "hh-sol-artifact-1",
  "contractName": "Token",
  "sourceName": "src/Token.sol",
  "abi": [
    {
      "inputs": [],
      "name": "total",
      "outputs": [
        {
          "internalType": "uint256",
          "name": "",
          "type": "uint256"
        }
      ],
      "stateMutability": "view",
      "type": "function"
    },
    {
      "inputs": [],
      "name": "totalSupply",
      "outputs": [
        {
          "internalType": "uint256",
          "name": "",
          "type": "uint256"
        }
      ],
      "stateMutability": "view",
      "type": "function"
    }
  ],
  "bytecode": "0x608060405260018055348015601357600080fd5b50608f806100226000396000f3fe6080604052348015600f57600080fd5b506004361060325760003560e01c806318160ddd1460375780632ddbd13a146051575b600080fd5b603f60005481565b60405190815260200160405180910390f35b603f6001548156fea26469706673582212206097e9cbe82d07f2a4682ac1fb2def2ceaef2757636a3b9e3dd8467d1cbdcef464736f6c63430008050033",
  "linkReferences": {},
  "deployedLinkReferences": {}
}